{
  "_format": "hh-sol-artifact-1",
  "contractName": "myNFT",
  "sourceName": "contracts/myNFT.sol",
  "abi": [
    {
      "inputs": [],
      "stateMutability": "nonpayable",
      "type": "constructor"
    },
    {
      "anonymous": false,
      "inputs": [
        {
          "indexed": true,
          "internalType": "address",
          "name": "owner",
          "type": "address"
        },
        {
          "indexed": true,
          "internalType": "address",
          "name": "approved",
          "type": "address"
        },
        {
          "indexed": true,
          "internalType": "uint256",
          "name": "tokenId",
          "type": "uint256"
        }
      ],
      "name": "Approval",
      "type": "event"
    },
    {
      "anonymous": false,
      "inputs": [
        {
          "indexed": true,
          "internalType": "address",
          "name": "owner",
          "type": "address"
        },
        {
          "indexed": true,
          "internalType": "address",
          "name": "operator",
          "type": "address"
        },
        {
          "indexed": false,
          "internalType": "bool",
          "name": "approved",
          "type": "bool"
        }
      ],
      "name": "ApprovalForAll",
      "type": "event"
    },
    {
      "anonymous": false,
      "inputs": [
        {
          "indexed": true,
          "internalType": "address",
          "name": "previousOwner",
          "type": "address"
        },
        {
          "indexed": true,
          "internalType": "address",
          "name": "newOwner",
          "type": "address"
        }
      ],
      "name": "OwnershipTransferred",
      "type": "event"
    },
    {
      "anonymous": false,
      "inputs": [
        {
          "indexed": true,
          "internalType": "address",
          "name": "from",
          "type": "address"
        },
        {
          "indexed": true,
          "internalType": "address",
          "name": "to",
          "type": "address"
        },
        {
          "indexed": true,
          "internalType": "uint256",
          "name": "tokenId",
          "type": "uint256"
        }
      ],
      "name": "Transfer",
      "type": "event"
    },
    {
      "inputs": [
        {
          "internalType": "address",
          "name": "to",
          "type": "address"
        },
        {
          "internalType": "uint256",
          "name": "tokenId",
          "type": "uint256"
        }
      ],
      "name": "approve",
      "outputs": [],
      "stateMutability": "nonpayable",
      "type": "function"
    },
    {
      "inputs": [
        {
          "internalType": "address",
          "name": "owner",
          "type": "address"
        }
      ],
      "name": "balanceOf",
      "outputs": [
        {
          "internalType": "uint256",
          "name": "",
          "type": "uint256"
        }
      ],
      "stateMutability": "view",
      "type": "function"
    },
    {
      "inputs": [
        {
          "internalType": "uint256",
          "name": "tokenId",
          "type": "uint256"
        }
      ],
      "name": "getApproved",
      "outputs": [
        {
          "internalType": "address",
          "name": "",
          "type": "address"
        }
      ],
      "stateMutability": "view",
      "type": "function"
    },
    {
      "inputs": [
        {
          "internalType": "address",
          "name": "owner",
          "type": "address"
        },
        {
          "internalType": "address",
          "name": "operator",
          "type": "address"
        }
      ],
      "name": "isApprovedForAll",
      "outputs": [
        {
          "internalType": "bool",
          "name": "",
          "type": "bool"
        }
      ],
      "stateMutability": "view",
      "type": "function"
    },
    {
      "inputs": [
        {
          "internalType": "string",
          "name": "_tokenURI",
          "type": "string"
        }
      ],
      "name": "mint",
      "outputs": [],
      "stateMutability": "nonpayable",
      "type": "function"
    },
    {
      "inputs": [],
      "name": "name",
      "outputs": [
        {
          "internalType": "string",
          "name": "",
          "type": "string"
        }
      ],
      "stateMutability": "view",
      "type": "function"
    },
    {
      "inputs": [],
      "name": "owner",
      "outputs": [
        {
          "internalType": "address",
          "name": "",
          "type": "address"
        }
      ],
      "stateMutability": "view",
      "type": "function"
    },
    {
      "inputs": [
        {
          "internalType": "uint256",
          "name": "tokenId",
          "type": "uint256"
        }
      ],
      "name": "ownerOf",
      "outputs": [
        {
          "internalType": "address",
          "name": "",
          "type": "address"
        }
      ],
      "stateMutability": "view",
      "type": "function"
    },
    {
      "inputs": [],
      "name": "renounceOwnership",
      "outputs": [],
      "stateMutability": "nonpayable",
      "type": "function"
    },
    {
      "inputs": [
        {
          "internalType": "address",
          "name": "from",
          "type": "address"
        },
        {
          "internalType": "address",
          "name": "to",
          "type": "address"
        },
        {
          "internalType": "uint256",
          "name": "tokenId",
          "type": "uint256"
        }
      ],
      "name": "safeTransferFrom",
      "outputs": [],
      "stateMutability": "nonpayable",
      "type": "function"
    },
    {
      "inputs": [
        {
          "internalType": "address",
          "name": "from",
          "type": "address"
        },
        {
          "internalType": "address",
          "name": "to",
          "type": "address"
        },
        {
          "internalType": "uint256",
          "name": "tokenId",
          "type": "uint256"
        },
        {
          "internalType": "bytes",
          "name": "_data",
          "type": "bytes"
        }
      ],
      "name": "safeTransferFrom",
      "outputs": [],
      "stateMutability": "nonpayable",
      "type": "function"
    },
    {
      "inputs": [
        {
          "internalType": "address",
          "name": "operator",
          "type": "address"
        },
        {
          "internalType": "bool",
          "name": "approved",
          "type": "bool"
        }
      ],
      "name": "setApprovalForAll",
      "outputs": [],
      "stateMutability": "nonpayable",
      "type": "function"
    },
    {
      "inputs": [
        {
          "internalType": "bytes4",
          "name": "interfaceId",
          "type": "bytes4"
        }
      ],
      "name": "supportsInterface",
      "outputs": [
        {
          "internalType": "bool",
          "name": "",
          "type": "bool"
        }
      ],
      "stateMutability": "view",
      "type": "function"
    },
    {
      "inputs": [],
      "name": "symbol",
      "outputs": [
        {
          "internalType": "string",
          "name": "",
          "type": "string"
        }
      ],
      "stateMutability": "view",
      "type": "function"
    },
    {
      "inputs": [
        {
          "internalType": "uint256",
          "name": "tokenId",
          "type": "uint256"
        }
      ],
      "name": "tokenURI",
      "outputs": [
        {
          "internalType": "string",
          "name": "",
          "type": "string"
        }
      ],
      "stateMutability": "view",
      "type": "function"
    },
    {
      "inputs": [
        {
          "internalType": "address",
          "name": "_to",
          "type": "address"
        },
        {
          "internalType": "uint256",
          "name": "_itemId",
          "type": "uint256"
        }
      ],
      "name": "transfer",
      "outputs": [],
      "stateMutability": "nonpayable",
      "type": "function"
    },
    {
      "inputs": [
        {
          "internalType": "address",
          "name": "from",
          "type": "address"
        },
        {
          "internalType": "address",
          "name": "to",
          "type": "address"
        },
        {
          "internalType": "uint256",
          "name": "tokenId",
          "type": "uint256"
        }
      ],
      "name": "transferFrom",
      "outputs": [],
      "stateMutability": "nonpayable",
      "type": "function"
    },
    {
      "inputs": [
        {
          "internalType": "address",
          "name": "newOwner",
          "type": "address"
        }
      ],
      "name": "transferOwnership",
      "outputs": [],
      "stateMutability": "nonpayable",
      "type": "function"
    }
  ],
  "bytecode": "0x60806040523480156200001157600080fd5b5060408051808201825260048152634d696b6560e01b60208083019182528351808501909452600984526821b0ba39aa37b5b2b760b91b9084015281519192916200005f91600091620000ee565b50805162000075906001906020840190620000ee565b505050620000926200008c6200009860201b60201c565b6200009c565b620001d1565b3390565b600780546001600160a01b038381166001600160a01b0319831681179093556040519116919082907f8be0079c531659141344cd1fd0a4f28419497f9722a3daafe3b4186f6b6457e090600090a35050565b828054620000fc9062000194565b90600052602060002090601f0160209004810192826200012057600085556200016b565b82601f106200013b57805160ff19168380011785556200016b565b828001600101855582156200016b579182015b828111156200016b5782518255916020019190600101906200014e565b50620001799291506200017d565b5090565b5b808211156200017957600081556001016200017e565b600181811c90821680620001a957607f821691505b60208210811415620001cb57634e487b7160e01b600052602260045260246000fd5b50919050565b61193780620001e16000396000f3fe608060405234801561001057600080fd5b50600436106101165760003560e01c80638da5cb5b116100a2578063b88d4fde11610071578063b88d4fde14610239578063c87b56dd1461024c578063d85d3d271461025f578063e985e9c514610272578063f2fde38b146102ae57600080fd5b80638da5cb5b146101fa57806395d89b411461020b578063a22cb46514610213578063a9059cbb1461022657600080fd5b806323b872dd116100e957806323b872dd1461019857806342842e0e146101ab5780636352211e146101be57806370a08231146101d1578063715018a6146101f257600080fd5b806301ffc9a71461011b57806306fdde0314610143578063081812fc14610158578063095ea7b314610183575b600080fd5b61012e6101293660046115b7565b6102c1565b60405190151581526020015b60405180910390f35b61014b610313565b60405161013a91906116e5565b61016b610166366004611635565b6103a5565b6040516001600160a01b03909116815260200161013a565b61019661019136600461158e565b610432565b005b6101966101a63660046114a0565b610548565b6101966101b93660046114a0565b610579565b61016b6101cc366004611635565b610594565b6101e46101df366004611454565b61060b565b60405190815260200161013a565b610196610692565b6007546001600160a01b031661016b565b61014b6106c8565b610196610221366004611554565b6106d7565b61019661023436600461158e565b6106e6565b6101966102473660046114db565b61071b565b61014b61025a366004611635565b610753565b61019661026d3660046115ef565b6108ca565b61012e61028036600461146e565b6001600160a01b03918216600090815260056020908152604080832093909416825291909152205460ff1690565b6101966102bc366004611454565b610923565b60006001600160e01b031982166380ac58cd60e01b14806102f257506001600160e01b03198216635b5e139f60e01b145b8061030d57506301ffc9a760e01b6001600160e01b03198316145b92915050565b6060600080546103229061183f565b80601f016020809104026020016040519081016040528092919081815260200182805461034e9061183f565b801561039b5780601f106103705761010080835404028352916020019161039b565b820191906000526020600020905b81548152906001019060200180831161037e57829003601f168201915b5050505050905090565b60006103b0826109be565b6104165760405162461bcd60e51b815260206004820152602c60248201527f4552433732313a20617070726f76656420717565727920666f72206e6f6e657860448201526b34b9ba32b73a103a37b5b2b760a11b60648201526084015b60405180910390fd5b506000908152600460205260409020546001600160a01b031690565b600061043d82610594565b9050806001600160a01b0316836001600160a01b031614156104ab5760405162461bcd60e51b815260206004820152602160248201527f4552433732313a20617070726f76616c20746f2063757272656e74206f776e656044820152603960f91b606482015260840161040d565b336001600160a01b03821614806104c757506104c78133610280565b6105395760405162461bcd60e51b815260206004820152603860248201527f4552433732313a20617070726f76652063616c6c6572206973206e6f74206f7760448201527f6e6572206e6f7220617070726f76656420666f7220616c6c0000000000000000606482015260840161040d565b61054383836109db565b505050565b6105523382610a49565b61056e5760405162461bcd60e51b815260040161040d9061177f565b610543838383610b2f565b6105438383836040518060200160405280600081525061071b565b6000818152600260205260408120546001600160a01b03168061030d5760405162461bcd60e51b815260206004820152602960248201527f4552433732313a206f776e657220717565727920666f72206e6f6e657869737460448201526832b73a103a37b5b2b760b91b606482015260840161040d565b60006001600160a01b0382166106765760405162461bcd60e51b815260206004820152602a60248201527f4552433732313a2062616c616e636520717565727920666f7220746865207a65604482015269726f206164647265737360b01b606482015260840161040d565b506001600160a01b031660009081526003602052604090205490565b6007546001600160a01b031633146106bc5760405162461bcd60e51b815260040161040d9061174a565b6106c66000610ccb565b565b6060600180546103229061183f565b6106e2338383610d1d565b5050565b6007546001600160a01b031633146107105760405162461bcd60e51b815260040161040d9061174a565b6106e2338383610579565b6107253383610a49565b6107415760405162461bcd60e51b815260040161040d9061177f565b61074d84848484610dec565b50505050565b606061075e826109be565b6107c45760405162461bcd60e51b815260206004820152603160248201527f45524337323155524953746f726167653a2055524920717565727920666f72206044820152703737b732bc34b9ba32b73a103a37b5b2b760791b606482015260840161040d565b600082815260066020526040812080546107dd9061183f565b80601f01602080910402602001604051908101604052809291908181526020018280546108099061183f565b80156108565780601f1061082b57610100808354040283529160200191610856565b820191906000526020600020905b81548152906001019060200180831161083957829003601f168201915b50505050509050600061087460408051602081019091526000815290565b9050805160001415610887575092915050565b8151156108b95780826040516020016108a1929190611679565b60405160208183030381529060405292505050919050565b6108c284610e1f565b949350505050565b6007546001600160a01b031633146108f45760405162461bcd60e51b815260040161040d9061174a565b610902600880546001019055565b600061090d60085490565b90506109193382610ef7565b6106e28183610f11565b6007546001600160a01b0316331461094d5760405162461bcd60e51b815260040161040d9061174a565b6001600160a01b0381166109b25760405162461bcd60e51b815260206004820152602660248201527f4f776e61626c653a206e6577206f776e657220697320746865207a65726f206160448201526564647265737360d01b606482015260840161040d565b6109bb81610ccb565b50565b6000908152600260205260409020546001600160a01b0316151590565b600081815260046020526040902080546001600160a01b0319166001600160a01b0384169081179091558190610a1082610594565b6001600160a01b03167f8c5be1e5ebec7d5bd14f71427d1e84f3dd0314c0f7b2291e5b200ac8c7c3b92560405160405180910390a45050565b6000610a54826109be565b610ab55760405162461bcd60e51b815260206004820152602c60248201527f4552433732313a206f70657261746f7220717565727920666f72206e6f6e657860448201526b34b9ba32b73a103a37b5b2b760a11b606482015260840161040d565b6000610ac083610594565b9050806001600160a01b0316846001600160a01b03161480610afb5750836001600160a01b0316610af0846103a5565b6001600160a01b0316145b806108c257506001600160a01b0380821660009081526005602090815260408083209388168352929052205460ff166108c2565b826001600160a01b0316610b4282610594565b6001600160a01b031614610ba65760405162461bcd60e51b815260206004820152602560248201527f4552433732313a207472616e736665722066726f6d20696e636f72726563742060448201526437bbb732b960d91b606482015260840161040d565b6001600160a01b038216610c085760405162461bcd60e51b8152602060048201526024808201527f4552433732313a207472616e7366657220746f20746865207a65726f206164646044820152637265737360e01b606482015260840161040d565b610c136000826109db565b6001600160a01b0383166000908152600360205260408120805460019290610c3c9084906117fc565b90915550506001600160a01b0382166000908152600360205260408120805460019290610c6a9084906117d0565b909155505060008181526002602052604080822080546001600160a01b0319166001600160a01b0386811691821790925591518493918716917fddf252ad1be2c89b69c2b068fc378daa952ba7f163c4a11628f55a4df523b3ef91a4505050565b600780546001600160a01b038381166001600160a01b0319831681179093556040519116919082907f8be0079c531659141344cd1fd0a4f28419497f9722a3daafe3b4186f6b6457e090600090a35050565b816001600160a01b0316836001600160a01b03161415610d7f5760405162461bcd60e51b815260206004820152601960248201527f4552433732313a20617070726f766520746f2063616c6c657200000000000000604482015260640161040d565b6001600160a01b03838116600081815260056020908152604080832094871680845294825291829020805460ff191686151590811790915591519182527f17307eab39ab6107e8899845ad3d59bd9653f200f220920489ca2b5937696c31910160405180910390a3505050565b610df7848484610b2f565b610e0384848484610f9c565b61074d5760405162461bcd60e51b815260040161040d906116f8565b6060610e2a826109be565b610e8e5760405162461bcd60e51b815260206004820152602f60248201527f4552433732314d657461646174613a2055524920717565727920666f72206e6f60448201526e3732bc34b9ba32b73a103a37b5b2b760891b606482015260840161040d565b6000610ea560408051602081019091526000815290565b90506000815111610ec55760405180602001604052806000815250610ef0565b80610ecf846110a9565b604051602001610ee0929190611679565b6040516020818303038152906040525b9392505050565b6106e28282604051806020016040528060008152506111c3565b610f1a826109be565b610f7d5760405162461bcd60e51b815260206004820152602e60248201527f45524337323155524953746f726167653a2055524920736574206f66206e6f6e60448201526d32bc34b9ba32b73a103a37b5b2b760911b606482015260840161040d565b6000828152600660209081526040909120825161054392840190611329565b60006001600160a01b0384163b1561109e57604051630a85bd0160e11b81526001600160a01b0385169063150b7a0290610fe09033908990889088906004016116a8565b602060405180830381600087803b158015610ffa57600080fd5b505af192505050801561102a575060408051601f3d908101601f19168201909252611027918101906115d3565b60015b611084573d808015611058576040519150601f19603f3d011682016040523d82523d6000602084013e61105d565b606091505b50805161107c5760405162461bcd60e51b815260040161040d906116f8565b805181602001fd5b6001600160e01b031916630a85bd0160e11b1490506108c2565b506001949350505050565b6060816110cd5750506040805180820190915260018152600360fc1b602082015290565b8160005b81156110f757806110e18161187a565b91506110f09050600a836117e8565b91506110d1565b60008167ffffffffffffffff81111561112057634e487b7160e01b600052604160045260246000fd5b6040519080825280601f01601f19166020018201604052801561114a576020820181803683370190505b5090505b84156108c25761115f6001836117fc565b915061116c600a86611895565b6111779060306117d0565b60f81b81838151811061119a57634e487b7160e01b600052603260045260246000fd5b60200101906001600160f81b031916908160001a9053506111bc600a866117e8565b945061114e565b6111cd83836111f6565b6111da6000848484610f9c565b6105435760405162461bcd60e51b815260040161040d906116f8565b6001600160a01b03821661124c5760405162461bcd60e51b815260206004820181905260248201527f4552433732313a206d696e7420746f20746865207a65726f2061646472657373604482015260640161040d565b611255816109be565b156112a25760405162461bcd60e51b815260206004820152601c60248201527f4552433732313a20746f6b656e20616c7265616479206d696e74656400000000604482015260640161040d565b6001600160a01b03821660009081526003602052604081208054600192906112cb9084906117d0565b909155505060008181526002602052604080822080546001600160a01b0319166001600160a01b03861690811790915590518392907fddf252ad1be2c89b69c2b068fc378daa952ba7f163c4a11628f55a4df523b3ef908290a45050565b8280546113359061183f565b90600052602060002090601f016020900481019282611357576000855561139d565b82601f1061137057805160ff191683800117855561139d565b8280016001018555821561139d579182015b8281111561139d578251825591602001919060010190611382565b506113a99291506113ad565b5090565b5b808211156113a957600081556001016113ae565b600067ffffffffffffffff808411156113dd576113dd6118d5565b604051601f8501601f19908116603f01168101908282118183101715611405576114056118d5565b8160405280935085815286868601111561141e57600080fd5b858560208301376000602087830101525050509392505050565b80356001600160a01b038116811461144f57600080fd5b919050565b600060208284031215611465578081fd5b610ef082611438565b60008060408385031215611480578081fd5b61148983611438565b915061149760208401611438565b90509250929050565b6000806000606084860312156114b4578081fd5b6114bd84611438565b92506114cb60208501611438565b9150604084013590509250925092565b600080600080608085870312156114f0578081fd5b6114f985611438565b935061150760208601611438565b925060408501359150606085013567ffffffffffffffff811115611529578182fd5b8501601f81018713611539578182fd5b611548878235602084016113c2565b91505092959194509250565b60008060408385031215611566578182fd5b61156f83611438565b915060208301358015158114611583578182fd5b809150509250929050565b600080604083850312156115a0578182fd5b6115a983611438565b946020939093013593505050565b6000602082840312156115c8578081fd5b8135610ef0816118eb565b6000602082840312156115e4578081fd5b8151610ef0816118eb565b600060208284031215611600578081fd5b813567ffffffffffffffff811115611616578182fd5b8201601f81018413611626578182fd5b6108c2848235602084016113c2565b600060208284031215611646578081fd5b5035919050565b60008151808452611665816020860160208601611813565b601f01601f19169290920160200192915050565b6000835161168b818460208801611813565b83519083019061169f818360208801611813565b01949350505050565b6001600160a01b03858116825284166020820152604081018390526080606082018190526000906116db9083018461164d565b9695505050505050565b602081526000610ef0602083018461164d565b60208082526032908201527f4552433732313a207472616e7366657220746f206e6f6e20455243373231526560408201527131b2b4bb32b91034b6b83632b6b2b73a32b960711b606082015260800190565b6020808252818101527f4f776e61626c653a2063616c6c6572206973206e6f7420746865206f776e6572604082015260600190565b60208082526031908201527f4552433732313a207472616e736665722063616c6c6572206973206e6f74206f6040820152701ddb995c881b9bdc88185c1c1c9bdd9959607a1b606082015260800190565b600082198211156117e3576117e36118a9565b500190565b6000826117f7576117f76118bf565b500490565b60008282101561180e5761180e6118a9565b500390565b60005b8381101561182e578181015183820152602001611816565b8381111561074d5750506000910152565b600181811c9082168061185357607f821691505b6020821081141561187457634e487b7160e01b600052602260045260246000fd5b50919050565b600060001982141561188e5761188e6118a9565b5060010190565b6000826118a4576118a46118bf565b500690565b634e487b7160e01b600052601160045260246000fd5b634e487b7160e01b600052601260045260246000fd5b634e487b7160e01b600052604160045260246000fd5b6001600160e01b0319811681146109bb57600080fdfea2646970667358221220561aad68c850a7361d17509f561f20cb523efa0238943d0cb876ae1b3921a24764736f6c63430008040033",
  "linkReferences": {},
  "deployedLinkReferences": {}
}